:100000000EC026C025C024C023C022C021C020C0ED
:100010001FC01FC01DC01CC01BC02AC03FC0112470
:100020001FBECFEDCDBF10E0A0E6B0E0E4E2F1E00E
:1000300002C005900D92A236B107D9F720E0A2E6E2
:10004000B0E001C01D92A636B207E1F74BD068C000
:10005000D7CF1F920F920FB60F9211248F938091DA
:1000600064008BBD8F910F900FBE0F901F9018955D
:100070001F920F920FB60F9211248F939F9381E0DE
:100080008093620098B388E0892788BB779A9F9114
:100090008F910F900FBE0F901F9018951F920F9287
:1000A0000FB60F9211248F93769A109262008FB13F
:1000B00080936400809164008A3F18F089EF8093F8
:1000C00064008F910F900FBE0F901F901895909124
:1000D0006200911104C08FB980E090E0089581E042
:1000E00090E00895BB9AC39880B7846080BFBC9AA3
:1000F000C4988CB580668CBD89EF8DBD80916400FD
:100100008BBD89B7806289BFB99A8DB1886D8DB971
:10011000789487EA91E60197F1F700C00000F9CFE3
:04012000F894FFCF81
:02012400F900E0
:00000001FF
